:100000000C9462000C945A030C9433030C948A00F1
:100010000C948A000C948A000C948A000C948A0038
:100020000C948A000C948A000C948A000C948A0028
:100030000C948A000C948A000C948A000C948A0018
:100040000C94E9020C948A000C94B7020C9491026F
:100050000C948A000C948A000C948A000C948A00F8
:100060000C948A000C948A000000000025002800EF
:100070002B0000000000240027002A0000000000E0
:1000800023002600290004040404040404040202DA
:100090000202020203030303030301020408102007
:1000A0004080010204081020010204081020000012
:1000B0000008000201000003040700000000000027
:1000C00000004B0411241FBECFEFD8E0DEBFCDBF30
:1000D00011E0A0E0B1E0E0E0F9E002C005900D928F
:1000E000AA31B107D9F721E0AAE1B1E001C01D9220
:1000F000A53CB207E1F710E0C2E6D0E004C02197CA
:10010000FE010E947804C136D107C9F70E9481031D
:100110000C947E040C940000E1EBF0E08491EDE996
:10012000F0E09491E9E8F0E0E491EE23C1F1882356
:1001300039F08330E9F090F4813001F1823011F12F
:10014000F0E0EE0FFF1FE458FF4FA591B491EC9142
:10015000E92381E090E029F580E008958730A9F057
:100160008830C9F0843061F7809180008F7D03C0B2
:10017000809180008F7780938000E2CF84B58F7765
:1001800084BDDECF84B58F7DFBCF8091B0008F77AB
:100190008093B000D5CF8091B0008F7DF9CF80E003
:1001A00090E00895AF92BF92CF92DF92EF92FF92CC
:1001B0000F931F93CF93DF936C017B018B01040F8F
:1001C000151FEB015E01AE18BF08C017D10759F02B
:1001D0006991D601ED91FC910190F081E02DC6016D
:1001E0000995892B79F7C501DF91CF911F910F9167
:1001F000FF90EF90DF90CF90BF90AF900895FC01FB
:10020000538D448D252F30E0842F90E0821B930B7B
:10021000541710F0CF96089501970895FC01918D21
:10022000828D981761F0A28DAE0FBF2FB11D5D9624
:100230008C91928D9F5F9F73928F90E008958FEFC6
:100240009FEF0895FC01918D828D981731F0828D7A
:10025000E80FF11D858D90E008958FEF9FEF0895D1
:10026000FC01918D228D892F90E0805C9F4F821B35
:1002700091098F739927089588E291E00E943001D7
:1002800021E0892B09F420E0822F089580E090E09E
:10029000892B29F00E943C0181110C9400000895E3
:1002A000FC01A48DA80FB92FB11DA35ABF4F2C91EB
:1002B000848D90E001968F739927848FA689B789E2
:1002C0002C93A089B1898C91837080648C93938DD9
:1002D000848D981306C00288F389E02D80818F7D7C
:1002E00080830895EF92FF920F931F93CF93DF9334
:1002F000EC0181E0888F9B8D8C8D98131AC0E88962
:10030000F989808185FF15C09FB7F894EE89FF8930
:100310006083E889F98980818370806480839FBFCE
:1003200081E090E0DF91CF911F910F91FF90EF90CE
:100330000895F62E0B8D10E00F5F1F4F0F731127DE
:10034000E02E8C8D8E110CC00FB607FCFACFE88919
:10035000F989808185FFF5CFCE010E945001F1CF50
:10036000EB8DEC0FFD2FF11DE35AFF4FF0829FB78D
:10037000F8940B8FEA89FB8980818062CFCFCF937D
:10038000DF93EC01888D8823B9F0AA89BB89E889BD
:10039000F9898C9185FD03C0808186FD0DC00FB663
:1003A00007FCF7CF8C9185FFF2CF808185FFEDCFE1
:1003B000CE010E945001E9CFDF91CF9108950895B9
:1003C0008F929F92AF92BF92EF92FF920F931F93E3
:1003D000CF93DF9310921E0110921D010BE410E0E9
:1003E000C1E0D0E024E6E22EF12C80911D01909135
:1003F0001E0184369105ECF4C8010197F1F7D09302
:100400001C01C0931B010E948C00892B41F41092A7
:100410001C0110921B01F0921E01E0921D018091BF
:100420001D0190911E01019690931E0180931D0164
:10043000DCCF80911B0190911C01019709F054C001
:10044000E9988FED91E090930301809302010E945F
:100450008C00892BE1F783EB9BE00197F1F7109279
:100460001E0110921D01812C912C540183949BE953
:10047000E92E9FE0F92E00911D0110911E01C091FF
:100480001A0108301105F4F40E948C00B501A40192
:10049000002E04C0440F551F661F771F0A94D2F721
:1004A000019769F4C42BC0931A01C7010197F1F7B2
:1004B0000F5F1F4F10931E0100931D01DCCF40956D
:1004C000C423F1CFC33239F550E040E068E171E078
:1004D00088E291E00E94D20042E050E066E171E0E3
:1004E00088E291E00E94D20080EE91E090930301B7
:1004F00080930201809169008C6080936900E99A81
:10050000DF91CF911F910F91FF90EF90BF90AF902F
:100510009F908F9008956C2F88E291E00E94720165
:10052000E3CF1F920F920FB60F9211242F933F9398
:100530004F935F936F937F938F939F93AF93BF93EB
:10054000EF93FF9388E291E00E945001FF91EF91B9
:10055000BF91AF919F918F917F916F915F914F91DB
:100560003F912F910F900FBE0F901F9018951F92E3
:100570000F920FB60F9211242F938F939F93EF93A7
:10058000FF93E0913801F09139018081E0913E01C3
:10059000F0913F0182FD1BC09081809141018F5FEE
:1005A0008F7320914201821741F0E0914101F0E008
:1005B000E85DFE4F958F80934101FF91EF919F91F0
:1005C0008F912F910F900FBE0F901F9018958081E3
:1005D000F4CF1F920F920FB60F9211242F933F93D7
:1005E0008F939F93AF93BF938091240190912501A6
:1005F000A0912601B09127013091230123E0230F20
:100600002D3758F50196A11DB11D2093230180932C
:10061000240190932501A0932601B0932701809196
:100620001F0190912001A0912101B091220101961A
:10063000A11DB11D80931F0190932001A093210162
:10064000B0932201BF91AF919F918F913F912F91D4
:100650000F900FBE0F901F90189526E8230F02965B
:10066000A11DB11DD2CF1F920F920FB60F92112470
:100670002F933F934F935F936F937F938F939F93AA
:10068000AF93BF93EF93FF93E0910201F0910301C9
:100690000995FF91EF91BF91AF919F918F917F91BC
:1006A0006F915F914F913F912F910F900FBE0F90DF
:1006B0001F9018951F920F920FB60F9211242F932F
:1006C0003F934F935F936F937F938F939F93AF93DA
:1006D000BF93EF93FF93E0910001F0910101099521
:1006E000FF91EF91BF91AF919F918F917F916F910A
:1006F0005F914F913F912F910F900FBE0F901F90E0
:100700001895789484B5826084BD84B5816084BD79
:1007100085B5826085BD85B5816085BD80916E009F
:10072000816080936E0010928100809181008260D0
:10073000809381008091810081608093810080910D
:1007400080008160809380008091B10084608093FC
:10075000B1008091B00081608093B00080917A00F8
:10076000846080937A0080917A00826080937A001E
:1007700080917A00816080937A0080917A0080680D
:1007800080937A001092C10080EE91E09093030173
:1007900080930201809169008C6080936900E99ADE
:1007A000EDE9F0E02491E9E8F0E084918823C1F0DC
:1007B00090E0880F991FFC01EE58FF4FC591D4912E
:1007C000FC01E859FF4FA591B4919FB7F894888137
:1007D000E22FE0958E2388838C91E823EC939FBFD2
:1007E000E7EAF0E02491E3E9F0E08491882399F0CE
:1007F00090E0880F991FFC01EE58FF4FA591B4912E
:10080000FC01E859FF4F859194918FB7F894EC91D2
:10081000E22BEC938FBFE0913801F091390182E037
:100820008083E0913401F09135011082E09136012E
:10083000F091370180E1808310924001E0913C010A
:10084000F0913D0186E08083E0913A01F0913B0117
:10085000808180618083E0913A01F0913B01808149
:1008600088608083E0913A01F0913B01808180684B
:100870008083E0913A01F0913B0180818F7D8083FC
:10088000C0E0D0E02097F1F30E943C018823D1F32F
:100890000E940000F7CFE8E2F1E01382128288EEB6
:1008A00093E0A0E0B0E084839583A683B78388E0DB
:1008B00091E09183808385EC90E09587848784EC38
:1008C00090E09787868780EC90E0918B808B81EC1D
:1008D00090E0938B828B82EC90E0958B848B86ECFE
:1008E00090E0978B868B118E128E138E148E089546
:1008F000EE0FFF1F0590F491E02D0994F894FFCFBF
:10090000DF01DF01000000007201D200FF00BF0123
:0A09100030010E0122010D0A000063
:00000001FF
