:100000000C945C000C9479000C9479000C947900A9
:100010000C9479000C9479000C9479000C9479007C
:100020000C9479000C9479000C9479000C9479006C
:100030000C9479000C9479000C9479000C9479005C
:100040000C9445010C9479000C9479000C9479007F
:100050000C9479000C9479000C9479000C9479003C
:100060000C9479000C947900000000002400270013
:100070002A0000000000250028002B0004040404CE
:100080000404040402020202020203030303030342
:10009000010204081020408001020408102001021F
:1000A00004081020000000080002010000030407FB
:1000B000000000000000000011241FBECFEFD8E0B8
:1000C000DEBFCDBF11E0A0E0B1E0E4E5F4E002C0A6
:1000D00005900D92A032B107D9F721E0A0E2B1E07E
:1000E00001C01D92A932B207E1F70E948F010C9462
:1000F00028020C940000E6EAF0E02491E2E9F0E046
:100100009491EEE7F0E0E491EE23C9F0222339F078
:10011000233001F1A8F4213019F1223029F1F0E067
:10012000EE0FFF1FEE58FF4FA591B4912FB7F89433
:10013000EC91811126C090959E239C932FBF08952A
:100140002730A9F02830C9F0243049F720918000E9
:100150002F7D03C0209180002F7720938000DFCF78
:1001600024B52F7724BDDBCF24B52F7DFBCF209185
:10017000B0002F772093B000D2CF2091B0002F7D18
:10018000F9CF9E2BDACF3FB7F8948091250190915B
:100190002601A0912701B091280126B5A89B05C092
:1001A0002F3F19F00196A11DB11D3FBFBA2FA92FF6
:1001B000982F8827BC01CD01620F711D811D911DF3
:1001C00042E0660F771F881F991F4A95D1F708955F
:1001D000CF92DF92EF92FF920F931F93CF93DF9313
:1001E000F82E02E310E0CBECD7E081E00E947B0028
:1001F000CE010197F1F780E00E947B00CE010197CC
:10020000F1F70150110989F781E00E947B008BED25
:100210009EE20197F1F780E00E947B002197F1F7C1
:10022000D0E0C0E00F2D10E08BECE82E87E0F82E38
:10023000C8010C2E02C0959587950A94E2F76C01CF
:1002400021E0C222DD2480FF1EC081E00E947B00ED
:10025000C7010197F1F780E0CD2809F481E00E9401
:100260007B00C7010197F1F72196C830D10501F74E
:1002700080E0DF91CF911F910F91FF90EF90DF9081
:10028000CF900C947B0080E0E1CF1F920F920FB6CD
:100290000F9211242F933F938F939F93AF93BF930C
:1002A0008091210190912201A0912301B09124011C
:1002B0003091200123E0230F2D3758F50196A11D21
:1002C000B11D209320018093210190932201A093DE
:1002D0002301B09324018091250190912601A091E2
:1002E0002701B09128010196A11DB11D8093250120
:1002F00090932601A0932701B0932801BF91AF915D
:100300009F918F913F912F910F900FBE0F901F9053
:10031000189526E8230F0296A11DB11DD2CF78941F
:1003200084B5826084BD84B5816084BD85B58260FA
:1003300085BD85B5816085BD80916E0081608093AB
:100340006E00109281008091810082608093810014
:100350008091810081608093810080918000816024
:10036000809380008091B10084608093B10080917F
:10037000B00081608093B00080917A0084608093A7
:100380007A0080917A00826080937A0080917A006E
:10039000816080937A0080917A00806880937A00EF
:1003A0001092C100E2E9F0E02491EEE7F0E08491E0
:1003B000882399F090E0880F991FFC01E859FF4FBE
:1003C000A591B491FC01EE58FF4F859194918FB7A0
:1003D000F894EC91E22BEC938FBFC0E0D0E000E00A
:1003E00011E021E00032120731F0F80181918F0114
:1003F0000E94E800F6CF83E20E94E8000E94C3005A
:100400004B015C0180E1C82E87E2D82EE12CF12C53
:100410000E94C300681979098A099B09683E7340E4
:1004200081059105A8F3F1E0CF1AD108E108F108A0
:1004300028EE820E23E0921EA11CB11CC114D1042F
:10044000E104F10429F7209751F20E940000C7CF80
:04045000F894FFCF4E
:100454004A61766965722052757A7A616E74652094
:100464004321202D204A5243202D205465636800E7
:107E0000112484B714BE81FFF0D085E080938100F7
:107E100082E08093C00088E18093C10086E0809377
:107E2000C20080E18093C4008EE0C9D0259A86E02C
:107E300020E33CEF91E0309385002093840096BBD3
:107E4000B09BFECF1D9AA8958150A9F7CC24DD24C4
:107E500088248394B5E0AB2EA1E19A2EF3E0BF2EE7
:107E6000A2D0813461F49FD0082FAFD0023811F036
:107E7000013811F484E001C083E08DD089C08234E0
:107E800011F484E103C0853419F485E0A6D080C0E4
:107E9000853579F488D0E82EFF2485D0082F10E0AE
:107EA000102F00270E291F29000F111F8ED06801E7
:107EB0006FC0863521F484E090D080E0DECF843638
:107EC00009F040C070D06FD0082F6DD080E0C81688
:107ED00080E7D80618F4F601B7BEE895C0E0D1E017
:107EE00062D089930C17E1F7F0E0CF16F0E7DF06D8
:107EF00018F0F601B7BEE89568D007B600FCFDCFD4
:107F0000A601A0E0B1E02C9130E011968C91119780
:107F100090E0982F8827822B932B1296FA010C0160
:107F200087BEE89511244E5F5F4FF1E0A038BF0790
:107F300051F7F601A7BEE89507B600FCFDCF97BE46
:107F4000E89526C08437B1F42ED02DD0F82E2BD052
:107F50003CD0F601EF2C8F010F5F1F4F84911BD097
:107F6000EA94F801C1F70894C11CD11CFA94CF0C13
:107F7000D11C0EC0853739F428D08EE10CD085E9AC
:107F80000AD08FE07ACF813511F488E018D01DD067
:107F900080E101D065CF982F8091C00085FFFCCF94
:107FA0009093C60008958091C00087FFFCCF809118
:107FB000C00084FD01C0A8958091C6000895E0E648
:107FC000F0E098E1908380830895EDDF803219F02E
:107FD00088E0F5DFFFCF84E1DECF1F93182FE3DFCA
:107FE0001150E9F7F2DF1F91089580E0E8DFEE27F6
:047FF000FF270994CA
:027FFE00040479
:0400000300007E007B
:00000001FF
